:020000040800F2
:1000000000500020E9470008954400089744000884
:10001000994400089B4400089D440008000000002B
:100020000000000000000000000000009F440008E5
:10003000A144000800000000A3440008A5440008F3
:1000400031480008314800083148000831480008AC
:10005000314800083148000831480008314800089C
:10006000314800083148000831480008B144000810
:100070003148000831480008C1440008D144000854
:100080003148000831480008E144000831480008C0
:10009000314800083148000831480008314800085C
:1000A000314800083148000831480008314800084C
:1000B0003148000831480008F14400083148000880
:1000C000314800083148000831480008314800082C
:1000D0000D45000831480008314800083148000843
:1000E000314800083148000831480008000000008D
:1000F0000000000000000000000000000000000000
:0C01000000000000000000005FF808F1A3
:1001100010B5054C237833B9044B13B10448AFF341
:1001200000800123237010BDE001002000000000CA
:10013000A86F000808B5034B1BB103490348AFF390
:10014000008008BD00000000E4010020A86F000846
:1001500081F0004102E000BF83F0004330B54FEA78
:1001600041044FEA430594EA050F08BF90EA020FE5
:100170001FBF54EA000C55EA020C7FEA645C7FEA78
:10018000655C00F0E2804FEA5454D4EB5555B8BF9B
:100190006D420CDD2C4480EA020281EA030382EA0C
:1001A000000083EA010180EA020281EA0303362D9E
:1001B00088BF30BD11F0004F4FEA01314FF4801C71
:1001C0004CEA113102D0404261EB410113F0004F83
:1001D0004FEA03334CEA133302D0524263EB43033A
:1001E00094EA050F00F0A780A4F10104D5F1200ED8
:1001F0000DDB02FA0EFC22FA05F2801841F1000133
:1002000003FA0EF2801843FA05F359410EE0A5F106
:1002100020050EF1200E012A03FA0EFC28BF4CF037
:10022000020C43FA05F3C01851EBE37101F00045ED
:1002300007D54FF0000EDCF1000C7EEB00006EEBFA
:100240000101B1F5801F1BD3B1F5001F0CD3490884
:100250005FEA30004FEA3C0C04F101044FEA4452DB
:1002600012F5800F80F09A80BCF1004F08BF5FEA62
:10027000500C50F1000041EB045141EA050130BD42
:100280005FEA4C0C404141EB010111F4801FA4F1E5
:100290000104E9D191F0000F04BF01460020B1FA3A
:1002A00081F308BF2033A3F10B03B3F120020CDA72
:1002B0000C3208DD02F1140CC2F10C0201FA0CF050
:1002C00021FA02F10CE002F11402D8BFC2F1200CB5
:1002D00001FA02F120FA0CFCDCBF41EA0C0190406B
:1002E000E41AA2BF01EB0451294330BD6FEA0404B4
:1002F0001F3C1CDA0C340EDC04F11404C4F120029F
:1003000020FA04F001FA02F340EA030021FA04F3B0
:1003100045EA030130BDC4F10C04C4F1200220FA07
:1003200002F001FA04F340EA0300294630BD21FA45
:1003300004F0294630BD94F0000F83F4801306BF0B
:1003400081F480110134013D4EE77FEA645C18BFFF
:100350007FEA655C29D094EA050F08BF90EA020F96
:1003600005D054EA000C04BF1946104630BD91EA8E
:10037000030F1EBF0021002030BD5FEA545C05D191
:100380004000494128BF41F0004130BD14F58004D0
:100390003CBF01F5801130BD01F0004545F0FE4144
:1003A00041F470014FF0000030BD7FEA645C1ABF79
:1003B000194610467FEA655C1CBF0B46024650EAB0
:1003C000013406BF52EA033591EA030F41F40021DC
:1003D00030BD00BF90F0000F04BF0021704730B562
:1003E0004FF4806404F132044FF000054FF0000137
:1003F00050E700BF90F0000F04BF0021704730B5F8
:100400004FF4806404F1320410F0004548BF4042CC
:100410004FF000013EE700BF42004FEAE2014FEA21
:1004200031014FEA02701FBF12F07F4393F07F4FFC
:1004300081F06051704732F07F4208BF704793F0FF
:100440007F4F04BF41F40021704730B54FF4607412
:1004500001F0004521F000411CE700BF50EA010215
:1004600008BF704730B54FF000050AE050EA0102BE
:1004700008BF704730B511F0004502D5404261EB2E
:1004800041014FF4806404F132045FEA915C3FF46F
:10049000D8AE4FF003025FEADC0C18BF03325FEA0C
:1004A000DC0C18BF033202EBDC02C2F1200300FABD
:1004B00003FC20FA02F001FA03FE40EA0E0021FAE2
:1004C00002F11444BDE600BF70B54FF0FF0C4CF4D0
:1004D000E06C1CEA11541DBF1CEA135594EA0C0F82
:1004E00095EA0C0F00F0DEF82C4481EA030621EABD
:1004F0004C5123EA4C5350EA013518BF52EA0335F8
:1005000041F4801143F4801338D0A0FB02CE4FF0A9
:100510000005E1FB02E506F00042E0FB03E54FF0D9
:100520000006E1FB03569CF0000F18BF4EF0010ED1
:10053000A4F1FF04B6F5007F64F5407404D25FEACD
:100540004E0E6D4146EB060642EAC62141EA555180
:100550004FEAC52040EA5E504FEACE2EB4F1FD0CC2
:1005600088BFBCF5E06F1ED8BEF1004F08BF5FEA40
:10057000500E50F1000041EB045170BD06F00046F2
:1005800046EA010140EA020081EA0301B4EB5C049F
:10059000C2BFD4EB0C0541EA045170BD41F4801197
:1005A0004FF0000E013C00F3AB8014F1360FDEBFBC
:1005B000002001F0004170BDC4F10004203C35DA98
:1005C0000C341BDC04F11404C4F1200500FA05F31B
:1005D00020FA04F001FA05F240EA020001F00042BC
:1005E00021F0004110EBD37021FA04F642EB060132
:1005F0005EEA430E08BF20EAD37070BDC4F10C045C
:10060000C4F1200500FA04F320FA05F001FA04F21F
:1006100040EA020001F0004110EBD37041F100010B
:100620005EEA430E08BF20EAD37070BDC4F1200516
:1006300000FA05F24EEA020E20FA04F301FA05F27E
:1006400043EA020321FA04F001F0004121FA04F226
:1006500020EA020000EBD3705EEA430E08BF20EAF6
:10066000D37070BD94F0000F0FD101F00046400030
:1006700041EB010111F4801F08BF013CF7D041EAB2
:10068000060195F0000F18BF704703F000465200B6
:1006900043EB030313F4801F08BF013DF7D043EA87
:1006A0000603704794EA0C0F0CEA135518BF95EA3D
:1006B0000C0F0CD050EA410618BF52EA4306D1D1C4
:1006C00081EA030101F000414FF0000070BD50EAE3
:1006D000410606BF1046194652EA430619D094EA6D
:1006E0000C0F02D150EA013613D195EA0C0F05D157
:1006F00052EA03361CBF104619460AD181EA0301AB
:1007000001F0004141F0FE4141F470014FF0000062
:1007100070BD41F0FE4141F4780170BD70B54FF0FD
:10072000FF0C4CF4E06C1CEA11541DBF1CEA13557D
:1007300094EA0C0F95EA0C0F00F0A7F8A4EB05045F
:1007400081EA030E52EA03354FEA013100F0888056
:100750004FEA03334FF0805545EA131343EA12631F
:100760004FEA022245EA111545EA10654FEA0026D4
:100770000EF000419D4208BF964244F1FD0404F58D
:10078000407402D25B084FEA3202B61A65EB0305E9
:100790005B084FEA32024FF480104FF4002CB6EBA6
:1007A000020E75EB030E22BFB61A754640EA0C0026
:1007B0005B084FEA3202B6EB020E75EB030E22BF66
:1007C000B61A754640EA5C005B084FEA3202B6EBA7
:1007D000020E75EB030E22BFB61A754640EA9C0066
:1007E0005B084FEA3202B6EB020E75EB030E22BF36
:1007F000B61A754640EADC0055EA060E18D04FEAF4
:10080000051545EA16754FEA06164FEAC30343EA93
:1008100052734FEAC2025FEA1C1CC0D111F4801F60
:100820000BD141EA00014FF000004FF0004CB6E759
:1008300011F4801F04BF01430020B4F1FD0C88BFF8
:10084000BCF5E06F3FF6AFAEB5EB030C04BFB6EB03
:10085000020C5FEA500C50F1000041EB045170BDF6
:100860000EF0004E4EEA113114EB5C04C2BFD4EB23
:100870000C0541EA045170BD41F480114FF0000EA7
:10088000013C90E645EA060E8DE60CEA135594EA23
:100890000C0F08BF95EA0C0F3FF43BAF94EA0C0F26
:1008A0000AD150EA01347FF434AF95EA0C0F7FF49B
:1008B00025AF104619462CE795EA0C0F06D152EAEF
:1008C00003353FF4FDAE1046194622E750EA4106D3
:1008D00018BF52EA43067FF4C5AE50EA41047FF4E4
:1008E0000DAF52EA43057FF4EBAE12E74FEA410247
:1008F000B2F1E04324BFB3F5001CDCF1FE5C0DD97E
:1009000001F0004C4FEAC0024CEA5070B2F1004FC7
:1009100040EB830008BF20F00100704711F0804FCA
:1009200021D113F13872BCBF01F00040704741F48F
:1009300080114FEA5252C2F11802C2F1200C10FA93
:100940000CF320FA02F018BF40F001004FEAC12377
:100950004FEAD32303FA0CFC40EA0C0023FA02F31B
:100960004FEA4303CCE77FEA625307D150EA0133F1
:100970001EBF4FF0FE4040F44000704701F00040C1
:1009800040F0FE4040F40000704700BF80F000409F
:1009900002E000BF81F0004142001FBF5FEA410357
:1009A00092EA030F7FEA226C7FEA236C6AD04FEA57
:1009B0001262D2EB1363C1BFD2184140484041409C
:1009C000B8BF5B42192B88BF704710F0004F40F44E
:1009D000000020F07F4018BF404211F0004F41F46A
:1009E000000121F07F4118BF494292EA030F3FD036
:1009F000A2F1010241FA03FC10EB0C00C3F1200349
:100A000001FA03F100F0004302D5494260EB4000D7
:100A1000B0F5000F13D3B0F1807F06D340084FEA42
:100A2000310102F10102FE2A51D2B1F1004F40EB37
:100A3000C25008BF20F0010040EA0300704749009F
:100A400040EB000010F4000FA2F10102EDD1B0FA6A
:100A500080FCACF1080CB2EB0C0200FA0CF0AABF5F
:100A600000EBC25052421843BCBFD04018437047FD
:100A700092F0000F81F4000106BF80F40000013203
:100A8000013BB5E74FEA41037FEA226C18BF7FEADA
:100A9000236C21D092EA030F04D092F0000F08BF1C
:100AA0000846704790EA010F1CBF0020704712F003
:100AB0007F4F04D1400028BF40F00040704712F142
:100AC00000723CBF00F50000704700F0004343F0A7
:100AD000FE4040F4000070477FEA226216BF0846DD
:100AE0007FEA23630146420206BF5FEA412390EAA0
:100AF000010F40F4800070474FF0000304E000BF96
:100B000010F0004348BF40425FEA000C08BF704746
:100B100043F0964301464FF000001CE050EA01020A
:100B200008BF70474FF000030AE000BF50EA01021F
:100B300008BF704711F0004302D5404261EB41010C
:100B40005FEA010C02BF84460146002043F0B64331
:100B500008BFA3F18053A3F50003BCFA8CF2083A56
:100B6000A3EBC25310DB01FA02FC634400FA02FC5F
:100B7000C2F12002BCF1004F20FA02F243EB020066
:100B800008BF20F00100704702F1200201FA02FCC8
:100B9000C2F1200250EA4C0021FA02F243EB0200BB
:100BA00008BF20EADC7070474FF0FF0C1CEAD052FF
:100BB0001EBF1CEAD15392EA0C0F93EA0C0F6FD0C0
:100BC0001A4480EA010C400218BF5FEA41211ED09E
:100BD0004FF0006343EA501043EA5111A0FB01318A
:100BE0000CF00040B1F5000F3EBF490041EAD3715F
:100BF0005B0040EA010062F17F02FD2A1DD8B3F1DB
:100C0000004F40EBC25008BF20F00100704790F049
:100C1000000F0CF0004C08BF49024CEA502040EA9B
:100C200051207F3AC2BFD2F1FF0340EAC250704761
:100C300040F400004FF00003013A5DDC12F1190F9F
:100C4000DCBF00F000407047C2F10002410021FA11
:100C500002F1C2F1200200FA02FC5FEA310040F129
:100C6000000053EA4C0308BF20EADC70704792F0A2
:100C7000000F00F0004C02BF400010F4000F013ADA
:100C8000F9D040EA0C0093F0000F01F0004C02BFD5
:100C9000490011F4000F013BF9D041EA0C018FE744
:100CA0000CEAD15392EA0C0F18BF93EA0C0F0AD04A
:100CB00030F0004C18BF31F0004CD8D180EA010070
:100CC00000F00040704790F0000F17BF90F0004F09
:100CD000084691F0000F91F0004F14D092EA0C0FEB
:100CE00001D142020FD193EA0C0F03D14B0218BF7E
:100CF000084608D180EA010000F0004040F0FE40C4
:100D000040F40000704740F0FE4040F4400070475F
:100D10004FF0FF0C1CEAD0521EBF1CEAD15392EADE
:100D20000C0F93EA0C0F69D0A2EB030280EA010CCE
:100D300049024FEA402037D04FF0805343EA111167
:100D400043EA10130CF000408B4238BF5B0042F1C5
:100D50007D024FF4000C8B4224BF5B1A40EA0C006A
:100D6000B3EB510F24BFA3EB510340EA5C00B3EB9C
:100D7000910F24BFA3EB910340EA9C00B3EBD10F8A
:100D800024BFA3EBD10340EADC001B0118BF5FEADC
:100D90001C1CE0D1FD2A3FF650AF8B4240EBC25005
:100DA00008BF20F0010070470CF0004C4CEA5020C6
:100DB0007F32C2BFD2F1FF0340EAC250704740F415
:100DC00000004FF00003013A37E792F0000F00F007
:100DD000004C02BF400010F4000F013AF9D040EA85
:100DE0000C0093F0000F01F0004C02BF490011F419
:100DF000000F013BF9D041EA0C0195E70CEAD15311
:100E000092EA0C0F08D142027FF47DAF93EA0C0FF7
:100E10007FF470AF084676E793EA0C0F04D14B02DB
:100E20003FF44CAF08466EE730F0004C18BF31F08D
:100E3000004CCAD130F000427FF45CAF31F0004387
:100E40007FF43CAF5FE700BF42000ED2B2F1FE4F2D
:100E50000BD34FF09E03B3EB126209D44FEA002389
:100E600043F0004323FA02F070474FF00000704750
:100E700012F1610F01D1420202D14FF0FF307047F1
:100E80004FF00000704700BF034613F8012B002A03
:100E9000FBD1181A013870474FF0FF3C06E000BF45
:100EA0004FF0010C02E000BF4FF0010C4DF804CDF3
:100EB0004FEA410C7FEA6C5C4FEA430C18BF7FEAB3
:100EC0006C5C1BD001B050EA410C0CBF52EA430CE1
:100ED00091EA030F02BF90EA020F0020704710F161
:100EE000000F91EA030F58BF994208BF90422CBFF0
:100EF000D8176FEAE37040F0010070474FEA410CE9
:100F00007FEA6C5C02D150EA013C07D14FEA430C06
:100F10007FEA6C5CD6D152EA033CD3D05DF8040B77
:100F2000704700BF8446104662468C4619466346A9
:100F300000E000BF01B5FFF7B7FF002848BF10F180
:100F4000000F01BD4DF808EDFFF7F4FF0CBF0120C5
:100F500000205DF808FB00BF4DF808EDFFF7EAFF41
:100F600034BF012000205DF808FB00BF4DF808EDFC
:100F7000FFF7E0FF94BF012000205DF808FB00BFF1
:100F80004DF808EDFFF7CEFF94BF012000205DF87B
:100F900008FB00BF4DF808EDFFF7C4FF34BF012088
:100FA00000205DF808FB00BF4FEA410C7FEA6C5C53
:100FB00002D150EA013C0AD14FEA430C7FEA6C5C53
:100FC00002D152EA033C02D14FF0000070474FF0CB
:100FD000010070474FEA410212F5001215D211D5F7
:100FE0006FF47873B3EB625212D94FEAC12343F026
:100FF000004343EA505311F0004F23FA02F018BFA8
:10100000404270474FF00000704750EA013005D170
:1010100011F0004008BF6FF0004070474FF0000033
:10102000704700BF10B504460E4B18784FF47A7322
:10103000B3FBF0F30C4A1068B0FBF3F000F002FCD5
:1010400068B90F2C01D901200AE0002221464FF097
:10105000FF3000F0B7FB054B1C60002000E00120D2
:1010600010BD00BF000000200C0000200400002084
:1010700008B5074A136843F010031360032000F01B
:101080008FFB0020FFF7CEFF03F0B4F9002008BD6E
:1010900000200240034A1168034B1B780B44136085
:1010A000704700BF2802002000000020014B186894
:1010B000704700BF2802002038B50446FFF7F6FF4E
:1010C0000546B4F1FF3F02D0044B1B781C44FFF7E8
:1010D000EDFF401BA042FAD338BD00BF0000002046
:1010E000704708B5436A9A6A12F0500F03D01B6A22
:1010F0001B6B984708BD9A6A42F400729A621A689C
:10110000926802F46022B2F5602F03D01846FFF710
:10111000E7FFEFE7DA68002AF8D19A6A22F48072D2
:101120009A629A6A12F4805FF0D19A6A42F00102E0
:101130009A62EBE7704708B5406AFFF7FBFF08BD0E
:10114000704710B5044603685A6812F0200F18D093
:101150001A6812F0020F14D0826A12F0100F03D135
:10116000826A42F4007282629A6802F46022B2F5E6
:10117000602F38D02046FFF7B3FF23686FF01202CC
:101180001A6023685A6812F0800F22D01A6812F091
:10119000040F1ED0A26A12F0100F03D1A26A42F40B
:1011A0000052A2629A6802F4E042B2F5E04F31D0F8
:1011B0005A6812F4806F05D19A6802F46022B2F581
:1011C000602F24D0204600F0E9FA23686FF00C026B
:1011D0001A6023685A6812F0400F03D01B6813F09E
:1011E000010F28D110BDE268002AC3D15A6822F04D
:1011F00020025A60A36A23F48073A362A36A13F4E3
:10120000805FB7D1A36A43F00103A362B2E7E2684B
:10121000002AD7D15A6822F080025A60A36A23F4C8
:101220008053A362A36A13F4807FCBD1A36A43F0F7
:101230000103A362C6E7A36A43F48033A362204696
:10124000FFF77EFF23686FF001021A60CAE770475C
:1012500008B5406A836A43F040038362C36A43F07F
:101260000403C362FFF7F3FF08BD000030B482B08F
:101270000023019390F82430012B00F08B8002466C
:10128000012380F824304B68062B29D80568686B49
:1012900003EB8303053B1F249C4020EA04000C68F9
:1012A00004FA03F303436B630B68092B38D9156801
:1012B000E86803EB43031E3B07249C4020EA04003C
:1012C0008C6804FA03F30343EB600B68103B012BBB
:1012D00034D90020002382F8243002B030BC70479B
:1012E0000C2B0ED80568286B03EB8303233B1F24CC
:1012F0009C4020EA04000C6804FA03F303432B63C8
:10130000D2E70568E86A03EB8303413B1F249C4056
:1013100020EA04000C6804FA03F30343EB62C3E71A
:101320001568286903EB430307249C4020EA040066
:101330008C6804FA03F303432B61C6E7136816486D
:10134000834205D0936A43F0200393620120C1E7F2
:10135000986810F4000F1BD1986840F40000986062
:101360000B68102B01D00020B4E70C4B1B680C4914
:10137000A1FB03139B0C03EB83035900019102E0D3
:10138000019B013B0193019B002BF9D10020A1E7B8
:1013900000209FE70220A0E7002401400C0000206D
:1013A00083DE1B4330B583B00023019303689A6842
:1013B00012F0010F2ED19A6842F001029A60174B89
:1013C0001B68174AA2FB03239B0C019302E0019BBD
:1013D000013B0193019B002BF9D10446FFF766FE08
:1013E000054623689B6813F0010F11D1FFF75EFEDD
:1013F000401B0228F5D9A36A43F01003A362E36AF5
:1014000043F00103E362002384F82430012002E06A
:10141000002000E0002003B030BD00BF0C00002021
:1014200083DE1B43F8B50468454DAC425BD0454BA9
:101430009C4258D090F82440012C7ED016460D4690
:101440000446012380F82430FFF7ACFF074600284C
:101450006ED1A36A23F4706323F0010343F4807315
:10146000A3622268374B9A4244D0A36A23F48013C4
:10147000A362536813F4806F05D0A36A23F440532A
:1014800043F48053A362A36A13F4805F48D0E36AF5
:1014900023F00603E362002384F82430236A2A4AF7
:1014A0009A62236A294ADA62236A294A1A632368FC
:1014B0006FF002021A602268936843F480739360AD
:1014C000216833462A464C31206A00F047FA2268E8
:1014D000936803F46023B3F5602F24D0936843F43A
:1014E0008013936027E0164B5B6813F4702FA1D034
:1014F000012720E0A3F580635B6813F4702FB4D05C
:10150000A36A43F48013A3620D4B5B6813F4806FEE
:10151000B9D0A36A23F4405343F48053A362B2E7E3
:101520000023E362B7E7936843F4A003936002E00B
:10153000002384F824303846F8BD0227FBE700BFBB
:101540000024014000280140E31000083711000882
:101550005112000838B503689A6812F0010F01D1E2
:10156000002038BD04469A6822F001029A60FFF715
:101570009DFD054623689B6813F0010F0ED0FFF711
:1015800095FD401B0228F5D9A36A43F01003A3621E
:10159000E36A43F00103E3620120E2E70020E0E7B1
:1015A00000287FD038B50446836A002B33D020460C
:1015B000FFF7D0FFA36A13F010036DD100286BD1A1
:1015C000A26A22F4885222F0020242F00202A262CF
:1015D0006268E1690A43E56842EA4502A168B1F53B
:1015E000807F21D001291CD0616901291FD0256885
:1015F000696821F469410B436B6021688D682A4B4F
:101600002B4013438B60A368B3F5807F20D0012B60
:101610001ED000211FE0C36280F8243002F052FB8C
:10162000C5E74FF48073DFE74FF48073DCE735B92B
:10163000A169013943EA413343F40063D7E7A16A62
:1016400041F02001A162E16A41F00101E162CEE7CF
:101650002369013B19052568EB6A23F470030B43EA
:10166000EB6223689968114B0B409A420BD0A36A36
:1016700023F0120343F01003A362E36A43F0010373
:10168000E36201200DE00023E362A36A23F0030379
:1016900043F00103A36204E0A36A43F01003A362D2
:1016A000012038BD01207047FDF7E1FFFE0E1FFF4E
:1016B00070B582B00023019390F82430012B68D0DC
:1016C0000446012380F82430FFF744FF054628B183
:1016D000002384F82430284602B070BDA36A23F4A6
:1016E000885323F0020343F00203A3622A4B1E68CF
:1016F000022000F0F3FEB6FBF0F04000019002E0A3
:10170000019B013B0193019B002BF9D12046FFF780
:1017100049FE2268936843F008039360FFF7C6FC14
:10172000064623689A6812F0080F0FD0FFF7BEFC38
:10173000801B0A28F5D9A36A23F0120343F0100393
:10174000A362002384F824300125C4E79A6842F09C
:1017500004029A60FFF7AAFC064623689B6813F010
:10176000040F0FD0FFF7A2FC801B0A28F5D9A36A4B
:1017700023F0120343F01003A362002384F8243003
:101780000125A8E7A36A23F0030343F00103A36242
:101790009EE702259FE700BF0C0000207047000075
:1017A000074AD36823F4E0631B041B0C000200F417
:1017B000E060184340F0BF6040F40030D0607047F4
:1017C00000ED00E030B4174BDB68C3F30223C3F134
:1017D0000704042C28BF04241D1D062D18D9033B23
:1017E0004FF0FF3505FA04F421EA0401994005FAA7
:1017F00003F322EA0303194300280BDB0901C9B2F2
:1018000000F1604000F5614080F8001330BC704783
:101810000023E5E700F00F000901C9B2024B19549B
:10182000F4E700BF00ED00E014ED00E000F01F025F
:10183000400901239340024A42F82030704700BF1C
:1018400000E100E00138B0F1807F0AD2064B586019
:10185000064AF02182F823100020986007221A60BF
:1018600070470120704700BF10E000E000ED00E08D
:10187000042805D0054A136823F004031360704759
:10188000024A136843F004031360704710E000E05D
:10189000704708B5FFF7FCFF08BD58B110B5044606
:1018A00043791BB101236371002010BD037102F065
:1018B00069FAF7E70120704770B4066CC56B012424
:1018C000B4406C60046863604368102B05D0036803
:1018D00099600368DA6070BC704703689A600368B7
:1018E000D960F8E7002830D010B403460168184AE0
:1018F0000A441848A0FB0202120992001A64164A10
:10190000DA63022283F82120086820F47F5020F057
:1019100030005A689C682243DC6822431C692243D9
:101920005C6922439C692243DC69224302430A60CA
:1019300000209862D862186358639863012283F884
:10194000212083F8200010BC70470120704700BFA1
:10195000F8FFFDBFCDCCCCCC0000024038B590F8EC
:101960002040012C32D0012480F8204090F8214002
:10197000012C04D0002380F82030022038BD04461A
:10198000022084F821000020A0632568286820F048
:10199000010028602046FFF78FFFE36A5BB12268F1
:1019A000136843F00E0313602268136843F00103C9
:1019B00013600020E2E72268136823F00403136039
:1019C0002268136843F00A031360EDE70220D5E7AD
:1019D00008B590F82130022B03D004238363012043
:1019E00008BD0268136823F00E03136002681368D1
:1019F00023F0010313600368194A934214D0143290
:101A000093421FD0143293421ED0143293421ED000
:101A1000143293421ED01432934202D04FF080729F
:101A200003E04FF4801200E001220E4B5A600123C4
:101A300080F82130002380F82030436B6BB1984749
:101A40000020CDE71022F0E74FF48072EDE74FF46D
:101A50008052EAE74FF48032E7E70020C0E700BF9A
:101A6000080002400000024038B5C36B1A680468E1
:101A70002568016C04238B40134235D015F0040F08
:101A800032D0236813F0200F03D1236823F004031E
:101A900023600368434A934214D01432934218D00F
:101AA0001432934217D01432934217D01432934217
:101AB00017D01432934202D04FF0806203E04FF40B
:101AC000800200E00422384B5A60C36A03B1984791
:101AD00038BD4022F7E74FF48062F4E74FF48042CC
:101AE000F1E74FF48022EEE702238B4013423CD013
:101AF00015F0020F39D0236813F0200F06D12368A8
:101B000023F00A032360012380F821300368254A6B
:101B1000934214D0143293421CD0143293421BD0FF
:101B2000143293421BD0143293421BD0143293428E
:101B300002D04FF0007203E04FF4001200E00222E6
:101B4000194B5A60002380F82030836A002BBFD0E5
:101B50009847BDE72022F3E74FF40072F0E74FF417
:101B60000052EDE74FF40032EAE7082303FA01F1EF
:101B70001142ADD015F0080FAAD0236823F00E0350
:101B80002360026CC16B012303FA02F24A60836393
:101B900080F82130002380F82030036B002B97D091
:101BA000984795E70800024000000240F0B482B078
:101BB00000263546A1E0002C59D0012C00D1CE687A
:101BC000FF2B68D88446FF2B68D8AC00DCF80020D7
:101BD0000F27A74022EA070206FA04F42243CCF8B2
:101BE00000204A6812F0805F00F086805E4A9469A7
:101BF00044F001049461926902F001020192019A99
:101C0000AC08A71C594A52F8272005F00307BF006B
:101C10004FF00F0C0CFA07FC22EA0C0C544A9042CD
:101C200042D002F5806290427FD002F580629042FD
:101C30007DD002F58062904234D0042235E04D4FD1
:101C4000BC4214D00BD94C4FBC4210D007F58037A2
:101C5000BC420CD0A7F58017BC42B1D107E0A7F574
:101C60008017BC4203D007F58037BC42A8D18C68EE
:101C70007CB1012C08D042610826A1E7CE68083665
:101C80009EE7CE680C369BE70261082698E700269F
:101C900096E7042694E700F1040C94E7A5F1080404
:101CA000A40093E7032200E00022BA4042EA0C02BB
:101CB00002342E4F47F824204A6812F4803F38D06F
:101CC0002E4C22681A4322604A6812F4003F36D034
:101CD0002A4C62681A4362604A6812F4801F34D04A
:101CE000264CA2681A43A2604A6812F4001F32D040
:101CF000224CE2681343E36001350F2D31D80122F5
:101D0000AA400B6813409A42F6D14C68122CB8D006
:101D100095D8022CB2D07FF64EAF032CB7D0112C41
:101D20007FF44EAFCE6804364AE70122BDE70222B7
:101D3000BBE7124C226822EA03022260C4E70F4C80
:101D4000626822EA03026260C6E70C4CA26822EADB
:101D50000302A260C8E7094CE26822EA0303E360D9
:101D6000CAE702B0F0BC704700100240000001401A
:101D70000008014000002110000031100004014063
:101D800012B90904016170470161704782B0084BC4
:101D90001B68084AA2FB03235B0A00FB03F00190C7
:101DA00000BF019B5A1E0192002BF9D102B070476F
:101DB0000C000020D34D621070B582B00446036859
:101DC00013F0010F2CD0AB4B5B6803F00C03042B1A
:101DD0001DD0A84B5B6803F00C03082B12D063687E
:101DE000B3F5803F41D0002B55D103F1804303F57B
:101DF00004331A6822F480321A601A6822F48022AE
:101E00001A6037E09B4B5B6813F4803FE7D0994B37
:101E10001B6813F4003F03D06368002B00F0AE8111
:101E2000236813F0020F76D0924B5B6813F00C0F0F
:101E30005FD0904B5B6803F00C03082B54D02369F0
:101E4000002B00F08A808C4B01221A60FFF72EF9DC
:101E50000546884B1B6813F0020F75D1FFF726F972
:101E6000401B0228F5D903208BE1824A136843F412
:101E700080331360636843B3FFF718F905467D4B61
:101E80001B6813F4003FCBD1FFF710F9401B642807
:101E9000F5D9032075E1B3F5A02F09D0754B1A6869
:101EA00022F480321A601A6822F480221A60E1E774
:101EB00003F18043A3F53C331A6842F480221A6090
:101EC0001A6842F480321A60D4E7FFF7EFF805464B
:101ED000684B1B6813F4003FA2D0FFF7E7F8401BE4
:101EE0006428F5D903204CE1624B5B6813F4803F12
:101EF000A5D1604B1B6813F0020F04D02369012B9E
:101F000001D001203DE15B4A136823F0F8036169C9
:101F100043EAC1031360236813F0080F32D0A369AA
:101F2000002B5BD0554B01221A60FFF7BFF8054626
:101F3000504B5B6A13F0020F21D1FFF7B7F8401B3B
:101F40000228F5D903201CE14A4A136823F0F8035C
:101F5000616943EAC1031360DDE7474B00221A6061
:101F6000FFF7A4F80546434B1B6813F0020FD2D0CD
:101F7000FFF79CF8401B0228F5D9032001E101205E
:101F8000FFF704FF236813F0040F00F09780394B2C
:101F9000DB6913F0805F33D1364BDA6942F080524F
:101FA000DA61DB6903F080530193019B0125344B17
:101FB0001B6813F4807F25D0E368012B36D0002BFB
:101FC0004CD103F1804303F504331A6A22F0010275
:101FD0001A621A6A22F004021A622CE0274B0022CD
:101FE0001A60FFF763F80546224B5B6A13F0020F95
:101FF000C8D0FFF75BF8401B0228F5D90320C0E0EA
:102000000025D4E71E4A136843F480731360FFF77A
:102010004DF806461A4B1B6813F4807FCCD1FFF7AE
:1020200045F8801B6428F5D90320AAE0114A136AF9
:1020300043F001031362E36873B3FFF737F8064612
:102040000C4B1B6A13F0020F37D1FFF72FF8801BE0
:1020500041F288339842F3D9032092E0052B11D046
:10206000044B1A6A22F001021A621A6A22F0040270
:102070001A62E0E70010024000004242800442423F
:1020800000700040414B1A6A42F004021A621A6A58
:1020900042F001021A62CEE7FFF708F806463B4B12
:1020A0001B6A13F0020F08D0FFF700F8801B41F203
:1020B00088339842F3D9032063E0E5B9E369002B44
:1020C0005ED0324A526802F00C02082A5BD0022B22
:1020D00017D02F4B00221A60FEF7E8FF04462B4B67
:1020E0001B6813F0007F47D0FEF7E0FF001B0228BB
:1020F000F5D9032045E0254AD36923F08053D36105
:10210000DCE7234B00221A60FEF7D0FF05461F4B89
:102110001B6813F0007F06D0FEF7C8FF401B0228A3
:10212000F5D903202DE0236AB3F5803F1AD0174973
:102130004B6823F47413226A606A024313434B60B2
:10214000134B01221A60FEF7B1FF04460F4B1B68C8
:1021500013F0007F0ED1FEF7A9FF001B0228F5D96E
:1021600003200EE0094A536823F40033A1680B43AF
:102170005360DCE7002004E0002002E0012000E0E2
:10218000002002B070BD0120FBE700BF001002403C
:102190006000424210B487B0164C94E80F000DF175
:1021A000180C0CE90F00238AADF80430124B5B6861
:1021B00003F00C02082A1AD1C3F38342624412F8D6
:1021C000102C13F4803F05D10C4800FB02F007B03F
:1021D00010BC7047084B5B68C3F34043634413F87B
:1021E000143C074800FB02F0B0FBF3F0EFE70448B3
:1021F000EDE700BFC06F00080010024000093D007D
:1022000000127A00594B1B6803F007038B420CD273
:10221000564A136823F007030B431360136803F057
:1022200007038B4201D00120704770B5036813F09B
:10223000020F06D04E4A536823F0F003846823430C
:1022400053600C460546036813F0010F52D04368F3
:10225000012B23D0022B28D0454A126812F0020F1E
:1022600000F0828042494A6822F0030213434B6027
:10227000FEF71CFF06466B68012B1DD0022B2AD0EF
:102280003B4B5B6813F00C0F34D0FEF70FFF801B45
:1022900041F288339842F3D9032064E0344A12684B
:1022A00012F4003FDED101205DE0314A126812F0E5
:1022B000007FD7D1012056E02D4B5B6803F00C0363
:1022C000042B17D0FEF7F2FE801B41F288339842B0
:1022D000F2D9032047E0264B5B6803F00C03082B80
:1022E00008D0FEF7E3FE801B41F288339842F2D912
:1022F000032038E01D4B1B6803F00703A3420CD9F1
:102300001A4A136823F0070323431360136803F08A
:102310000703A34201D0012025E02B6813F0040F2E
:1023200006D0134A536823F4E063E9680B43536013
:102330002B6813F0080F07D00D4A536823F460533D
:10234000296943EAC1035360FFF724FF084B5B6828
:10235000C3F30313074AD35CD840074B186000202F
:10236000FEF760FE002070BD0120FCE70020024067
:1023700000100240687300080C000020014B186830
:10238000704700BF0C00002008B5FFF7F7FF044BB3
:102390005B68C3F30223034AD35CD84008BD00BF87
:1023A000001002407873000808B5FFF7E7FF044B00
:1023B0005B68C3F3C223034AD35CD84008BD00BFA7
:1023C000001002407873000870B582B004460368BC
:1023D00013F0010F34D03E4BDB6913F0805F48D11E
:1023E0003B4BDA6942F08052DA61DB6903F08053DB
:1023F0000193019B0125374B1B6813F4807F3AD072
:10240000334B1B6A13F4407311D0626802F44072BC
:102410009A420CD02E4A136A23F440702E490126AA
:102420000E6000260E60106213F0010F37D1284AAB
:10243000136A23F4407361680B431362002D3FD18C
:10244000236813F0020F06D0214A536823F4404357
:10245000A1680B435360236813F0100F35D01C4A5A
:10246000536823F48003E1680B435360002002B0FB
:1024700070BD0025BFE7174A136843F480731360EB
:10248000FEF714FE0646134B1B6813F4807FB7D18A
:10249000FEF70CFE801B6428F5D90320E7E7FEF762
:1024A00005FE06460A4B1B6A13F0020FBFD1FEF76A
:1024B000FDFD801B41F288339842F3D90320D6E713
:1024C000D36923F08053D361BAE70020CFE700BF80
:1024D00000100240007000404004424230B587B016
:1024E0000546384C94E80F000DF1180C0CE90F006C
:1024F000238AADF80430022D50D0102D03D0012DC9
:102500002BD0002054E0304B5A681B6813F0807FBA
:1025100050D0C2F3834306A90B4413F8100C12F4F5
:10252000803F16D0284B5B68C3F340430B4413F83D
:10253000142C264BB3FBF2F300FB03F0224B5B6839
:1025400013F4800F34D14000214BA3FB003040082E
:102550002EE0204B03FB00F0F0E71B4B1B6A40F220
:1025600002321A40B2F5817F26D003F44073B3F5EE
:10257000007F04D0B3F5407F09D0002018E0124A54
:10258000526A12F0020FF5D049F6404010E00E4BAF
:102590001B6813F4003F12D1002009E0FFF704FF8D
:1025A000094B5B68C3F3813301335B00B0FBF3F08D
:1025B00007B030BD0020FBE74FF40040F8E74FF2D2
:1025C0002440F5E7D46F00080010024000127A00A2
:1025D000ABAAAAAA00093D00F8B505460F46164663
:1025E0001C463BE02CB1FEF761FD069BC01AA042E1
:1025F00034D32A68536823F0E00353606B68B3F563
:10260000827F0BD0AB6AB3F5005F14D0012385F84D
:102610005130002385F85030032027E0AB68B3F534
:10262000004F02D0B3F5806FECD12A68136823F015
:1026300040031360E6E72A68136823F400531B0481
:102640001B0C13602A68136843F400531360DDE722
:102650000123B34209D0B4F1FF3FC3D12B689B687B
:1026600037EA0303F4D00023F3E70020F8BD10B5E8
:1026700082B0044600920B4600228021FFF7ACFF97
:10268000034610B9184602B010BD636D43F0200335
:1026900063650323F6E72DE9F04184B01E4690F808
:1026A0005030012B00F0C88004460D4690460123AF
:1026B00080F85030FEF7FAFC074694F85130DBB250
:1026C000012B0AD00223012284F85120002284F831
:1026D0005020184604B0BDE8F081002D00F0A48021
:1026E000B8F1000F00F0A280032384F851300023DA
:1026F00063652563A4F83480A4F83680A363A387B8
:10270000E38763642364A368B3F5004F1BD0236899
:102710001A6812F0400F03D11A6842F040021A60A2
:10272000E368B3F5006F14D063681BB1E38E9BB20E
:10273000012B3ED1236815F8012B1A73E38E013B60
:102740009BB2E38635E02268136843F4804313604C
:10275000DDE763681BB1E38E9BB2012B0DD12368CB
:1027600035F8022BDA60E38E013B9BB2E38604E08E
:10277000002E5DD0B6F1FF3F0FD1E38E9BB27BB34D
:1027800023689A6812F0020FF2D035F8022BDA6053
:10279000E38E013B9BB2E386EFE7FEF787FCC01BAD
:1027A000B042EAD303238EE7002E43D0B6F1FF3FB9
:1027B0000FD1E38E9BB29BB123689A6812F0020F8F
:1027C000F2D015F8012B1A73E38E013B9BB2E3861E
:1027D000EFE7FEF76BFCC01BB042EAD3032372E7BE
:1027E00000973346012202212046FFF7F5FE08B18B
:1027F000032368E73A4631462046FFF738FF034691
:1028000018B12023636501235DE7A26832B9039202
:102810002268D168039192680392039A626D002A3C
:102820003FF451AF01234EE701234CE701234AE770
:10283000032348E7032346E702234AE72DE9F04351
:1028400085B099460C9D90F85030012B00F0108116
:1028500004460F461646012380F85030FEF726FC4A
:10286000804694F85130DBB26268012B15D0B2F586
:10287000827F0AD00223012284F85120002284F8AA
:102880005020184605B0BDE8F083A268002A40F049
:10289000E780042B01D00223EDE7002F00F0E28057
:1028A000002E00F0E180B9F1000F00F0DF8094F815
:1028B0005130DBB2012B2BD000236365A663A4F853
:1028C0003E90A4F83C902763A4F83690A4F8349086
:1028D0002364636423681A6812F0400F03D11A68F6
:1028E00042F040021A60E368B3F5006F14D06368E9
:1028F0001BB1E38E9BB2012B07D1236817F8012B84
:102900001A73E38E013B9BB2E3864FF0010961E04D
:10291000052384F85130CFE763681BB1E38E9BB287
:10292000012B07D1236837F8022BDA60E38E013BD5
:102930009BB2E3864FF0010913E0E38F9BB26BB1CA
:1029400023689A6812F0010F08D0DB6826F8023B72
:10295000E38F013B9BB2E3874FF00109B5F1FF3FE5
:102960001CD1E38E9BB21BB9E38F9BB2002B55D0D9
:10297000B9F1000FE1D0E38E9BB2002BDDD02368CC
:102980009A6812F0020FD8D037F8022BDA60E38E83
:10299000013B9BB2E3864FF00009CEE7FEF786FBD2
:1029A000A0EB0800A842DCD3032364E7E38F9BB2CB
:1029B0006BB123689A6812F0010F08D0DB6833709E
:1029C000E38F013B9BB2E38701364FF00109B5F17C
:1029D000FF3F1BD1E38E9BB213B9E38F9BB2EBB1E8
:1029E000B9F1000FE2D0E38E9BB2002BDED023685A
:1029F0009A6812F0020FD9D03A781A73E38E013B2D
:102A00009BB2E38601374FF00009CFE7FEF74EFB9C
:102A1000A0EB0800A842DDD303232CE7CDF800800B
:102A20002B46012202212046FFF7D6FD08B10323E1
:102A300021E7424629462046FFF719FE034618B112
:102A400020236365012316E7A268002A7FF413AFF1
:102A500003922268D168039192680392039A0AE76D
:102A6000022308E7012306E7012304E7012302E725
:102A7000022306E72DE9F04182B004460D461746D1
:102A80001E464368B3F5827F19D094F85030012B6D
:102A900000F0A280012384F85030FEF707FB804647
:102AA00094F85130DBB2012B15D00220012384F8B9
:102AB0005130002384F8503002B0BDE8F0818368C3
:102AC000002BE2D1042380F85130009613460A46C9
:102AD000FFF7B4FEF0E7002D74D0002F74D004236C
:102AE00084F8513000236365A563A787E7872363D4
:102AF000A386E38623646364A368B3F5004F0BD019
:102B000023681A6812F0400F03D11A6842F040029D
:102B10001A60E3685BB128E02268136823F48043FD
:102B20001360EDE7002E51D0B6F1FF3F10D1E38FD7
:102B30009BB2002B31D023689A6812F0010FF1D0BC
:102B40001B7B05F8013BE38F013B9BB2E387EEE77C
:102B5000FEF7ACFAA0EB0800B042E8D30320A5E7EB
:102B6000002E35D0B6F1FF3F0FD1E38F9BB2A3B15A
:102B700023689A6812F0010FF2D0DB6825F8023B57
:102B8000E38F013B9BB2E387EFE7FEF78FFAA0EB01
:102B90000800B042E9D3032088E76368B3F5827F79
:102BA00003D0636DB3B9002080E7A368B3F5004F8D
:102BB00002D0B3F5806FF4D12268136823F040038C
:102BC0001360EEE7012071E701206FE703206DE756
:102BD00003206BE7012069E702206DE770470000E2
:102BE00010B584B0044602685068936803F0410150
:102BF00001290AD013F0020F0ED010F0800F0BD075
:102C0000636C2046984704B010BD10F0400FF1D01F
:102C1000236C20469847F6E713F0600FF3D010F0CE
:102C2000200FF0D013F0400F0FD094F85110C9B21C
:102C300003293DD0616D41F00401616500210191DE
:102C4000D168019191680191019913F0200F0CD086
:102C5000636D43F00103636500230393936803935B
:102C6000136823F040031360039B636D002BCAD0ED
:102C70002268536823F0E0035360012384F8513045
:102C800010F0030F1CD02268536823F00303536035
:102C9000E36C23B10C4A5A63E06CFEF799FEA36C17
:102CA000002BB0D0084A5A63A06CFEF791FEAAE749
:102CB00000230293D368029393680293029BA2E7D6
:102CC0002046FFF78BFF9EE7CD2C000808B5406A31
:102CD0000023C387C386FFF781FF08BD90F851002A
:102CE0007047406D704700283CD010B50446002363
:102CF000836290F85130002B31D0022384F8513098
:102D00002268136823F0400313606368A2681343CA
:102D1000E26813432269134362691343A26902F410
:102D200000721343E2691343226A1343A16A2268C3
:102D30000B431360638B03F00403616A22680B4347
:102D400053602368E26A1A612268D36923F400633E
:102D5000D36100206065012384F8513010BD01F07B
:102D60001BFBCAE70120704710B4036A046A24F011
:102D700001040462846924F0F00444EA021223F09E
:102D80000A030B438261036210BC704710B4036AEC
:102D900023F0100303628469036A24F4704444EA54
:102DA000023223F0A00343EA01138261036210BCE4
:102DB0007047836823F0700341F007011943816075
:102DC000704710B4846824F47F4442EA03230B4321
:102DD0002343836010BC70470268D36843F001034B
:102DE000D3600268136843F001031360002070474A
:102DF00090F83C30012B7DD010B50446012380F8BB
:102E00003C30022380F83D300268936823F47F430E
:102E100023F0770393600B68402B57D010D9702BA9
:102E20003ED01FD8502B47D0602B32D1CA6849689A
:102E30000068FFF7ABFF60212068FFF7BAFF28E0CA
:102E4000102B4DD008D9202B4FD0302B21D1302141
:102E50000068FFF7AEFF1CE0DBB900210068FFF758
:102E6000A8FF16E0B3F5805F0ED0B3F5005F10D178
:102E7000CB684A6889680068FFF7A3FF22689368F7
:102E800043F48043936004E00268936823F00703EF
:102E90009360012384F83D30002084F83C0010BD8D
:102EA000CB684A6889680068FFF78BFF22689368DF
:102EB00043F077039360ECE7CA6849680068FFF75E
:102EC00053FF50212068FFF774FFE2E7CA684968A2
:102ED0000068FFF749FF40212068FFF76AFFD8E745
:102EE00010210068FFF765FFD3E720210068FFF796
:102EF00060FFCEE702207047704770477047704709
:102F0000704710B5044603681A6912F0020F11D019
:102F1000DA6812F0020F0DD06FF002021A6101237D
:102F2000037703689B6913F0030F70D0FFF7E6FF88
:102F30000023237723681A6912F0040F12D0DA688D
:102F400012F0040F0ED06FF004021A6102232377EF
:102F500023689B6913F4407F5FD02046FFF7CEFFC4
:102F60000023237723681A6912F0080F12D0DA6859
:102F700012F0080F0ED06FF008021A6104232377B5
:102F80002368DB6913F0030F4ED02046FFF7B6FF2E
:102F90000023237723681A6912F0100F12D0DA6821
:102FA00012F0100F0ED06FF010021A610823237771
:102FB0002368DB6913F4407F3DD02046FFF79EFF76
:102FC0000023237723681A6912F0010F03D0DA680F
:102FD00012F0010F36D123681A6912F0800F03D066
:102FE000DA6812F0800F34D123681A6912F0400FAA
:102FF00003D0DA6812F0400F32D123681A6912F058
:10300000200F03D0DA6812F0200F30D110BDFFF787
:1030100074FF2046FFF773FF8AE72046FFF76DFF36
:103020002046FFF76CFF9BE72046FFF766FF204630
:10303000FFF765FFACE72046FFF75FFF2046FFF78D
:103040005EFFBDE76FF001021A612046FFF754FFF3
:10305000C1E76FF080021A61204600F08CF8C3E7E8
:103060006FF040021A612046FFF74AFFC5E76FF094
:1030700020021A61204600F07DF8C7E703681B4A6A
:1030800090420AD0B0F1804F07D0A2F5943290421E
:1030900003D002F58062904203D123F070034A68A6
:1030A0001343124A90420AD0B0F1804F07D0A2F5E4
:1030B0009432904203D002F58062904203D123F40F
:1030C0004073CA68134323F080034A6913430360C3
:1030D0008B68C3620B688362044B984202D0012361
:1030E000436170470B690363F9E700BF002C01409F
:1030F000A8B110B5044690F83D305BB1022384F8C6
:103100003D30211D2068FFF7B9FF012384F83D30D1
:10311000002010BD80F83C3001F0A6FAEEE7012057
:10312000704790F83C30012B22D030B4012280F857
:103130003C20022380F83D300468636823F070036C
:103140006360046863680D682B4363600468A36868
:1031500023F08003A3600468A36849680B43A3605D
:1031600080F83D20002380F83C30184630BC704782
:1031700002207047704770472DE9F8430546026802
:10318000136923F44053C1680B43136183680269D8
:103190001343426913430168CA6822F4B05222F013
:1031A0000C021343CB600268536923F440738169B6
:1031B0000B4353610268594B9A4257D0FFF7E4F82A
:1031C00000EB800000EB80006C68A400B0FBF4F41E
:1031D000534FA7FB043464092601FFF7D5F800EB31
:1031E000800000EB80006C68A400B0FBF4F9FFF7EE
:1031F000CBF800EB800000EB80006C68A400B0FB13
:10320000F4F4A7FB043464094FF0640808FB149439
:1032100024013234A7FB0434640904F0F00434447C
:10322000FFF7B2F800EB800000EB80006E68B6009C
:10323000B0FBF6F6FFF7A8F800EB800000EB80008B
:103240006B689B00B0FBF3F0A7FB0030400908FB64
:1032500010684FEA081808F13208A7FB0837C7F3CF
:1032600043172B6827449F60BDE8F883FFF79CF85D
:1032700000EB800000EB80006C68A400B0FBF4F46D
:10328000274FA7FB043464092601FFF78DF800EBF4
:10329000800000EB80006C68A400B0FBF4F9FFF73D
:1032A00083F800EB800000EB80006C68A400B0FBAA
:1032B000F4F4A7FB043464094FF0640808FB149489
:1032C00024013234A7FB0434640904F0F0043444CC
:1032D000FFF76AF800EB800000EB80006E68B60034
:1032E000B0FBF6F6FFF760F800EB800000EB800023
:1032F0006B689B00B0FBF3F0A7FB0030400908FBB4
:1033000010684FEA081808F13208A7FB0837C7F31E
:1033100043172B6827449F60A6E700BF0038014091
:103320001F85EB512DE9F04105460F46164698469C
:10333000069C2B681B6837EA03030CBF012300239C
:10334000B3421DD1B4F1FF3FF3D02CB1FDF7AEFE77
:10335000A0EB0800A042ECD92A68D36823F4D0730C
:10336000D3602A68536923F001035361202385F851
:10337000393085F83A30002385F83830032000E0F2
:103380000020BDE8F08158B310B5044690F83930FC
:103390000BB3242384F839302268D36823F4005314
:1033A000D3602046FFF7E8FE2268136923F49043B8
:1033B00013612268536923F02A0353612268D3689A
:1033C00043F40053D3600020E063202384F83930B5
:1033D00084F83A3010BD80F8383001F097F9D8E71A
:1033E000012070472DE9F04182B01E4690F8393037
:1033F000DBB2202B55D104460D469046002955D00E
:10340000002A55D090F83830012B53D0012380F892
:1034100038300023C363212380F83930FDF746FE9E
:103420000746A4F82480A4F8268010E000963B46C6
:10343000002280212046FFF775FF00283CD12B8811
:103440002268C3F3080353602369C3B90235E38CD0
:103450009BB2B3B1E38C013B9BB2E384A368B3F5A9
:10346000805FE3D000963B46002280212046FFF794
:1034700059FF18BB2A7823685A600135E7E7013500
:10348000E5E700963B46002240212046FFF74AFF31
:103490000346A8B9202284F83920002284F8382075
:1034A00000E00223184602B0BDE8F0810123F9E7ED
:1034B0000123F7E70223F5E70323F3E70323F1E70B
:1034C0000323EFE708B50A464FF480510148FEF7A1
:1034D00057FC08BD000C014008B50A464FF4807146
:1034E0000148FEF74DFC08BD00080140F0B585B06D
:1034F000044616461F4601F01F018DF80E100021EC
:10350000FFF7E0FF3225009501230DF10F020DF1C9
:103510000E012068FFF792F92B463A4631462068A3
:10352000FFF7A8FA054601212046FFF7CBFF1DB99A
:103530009DF80F0005B0F0BD2068FFF7D2FB0646EE
:103540002068FFF7CBFB9DF80E3000930346324610
:103550002946024801F0F0FDEAE700BF607000086C
:1035600070B584B0044601F01F018DF80D100021E4
:10357000FFF7A8FF3225009501230DF10F020DF191
:103580000D012068FFF75AF92B4601220DF10E01BB
:103590002068FFF76FFA054601212046FFF792FFEA
:1035A0001DB99DF80E0004B070BD2068FFF799FBAF
:1035B00006462068FFF792FB9DF80D300093034606
:1035C00032462946014801F0B7FDEAE700700008DD
:1035D000F0B585B0044616461F4601F01F0141F0C4
:1035E00020018DF80E100021FFF76CFF32250095A9
:1035F00001230DF10F020DF10E012068FFF71EF9F6
:103600002B463A4631462068FFF745F8054601212A
:103610002046FFF757FF1DB99DF80F0005B0F0BD1C
:103620002068FFF75EFB06462068FFF757FB9DF812
:103630000E300093034632462946024801F07CFDD5
:10364000EAE700BF1071000870B586B004468DF837
:103650000F2001F01F0141F020018DF8161000210C
:10366000FFF730FF3225009501230DF117020DF110
:1036700016012068FFF7E2F82B4601220DF10F0139
:103680002068FFF708F8054601212046FFF71AFFDA
:103690001DB99DF8170006B070BD2068FFF721FB2B
:1036A00006462068FFF71AFB9DF816300093034684
:1036B00032462946014801F03FFDEAE768710008FB
:1036C0002DE9F04184B00446884616468279B2421C
:1036D00000D81646237A23BB921BD5B2A0238DF8BF
:1036E0000E3000212046FFF7EDFE32270097012320
:1036F0000DF10F020DF10E012068FFF79FF83B4618
:10370000324641462068FEF7C6FF06465DB90121F4
:103710002046FFF7D7FE8EB99DF80F0004B0BDE834
:10372000F0810025DAE704A9002301F8033D3B46B8
:103730002A462068FEF7AFFF0646E8E72068FFF755
:10374000D0FA05462068FFF7C9FA9DF80E300093BD
:1037500003462A463146024801F0EEFCDCE700BF92
:10376000B870000870B584B00446E2238DF80E30BE
:103770000021FFF7A7FE3223009301230DF10F0272
:103780000DF10E012068FFF759F80546012120468A
:10379000FFF798FE1DB99DF80F0004B070BD2068BA
:1037A000FFF79FFA06462068FFF798FA9DF80E305B
:1037B0000093034632462946014801F0BDFCEAE782
:1037C000C871000870B584B00446E1238DF80E304E
:1037D0000021FFF777FE3223009301230DF10F0242
:1037E0000DF10E012068FFF729F80546012120465A
:1037F000FFF768FE1DB99DF80F0004B070BD20688A
:10380000FFF76FFA06462068FFF768FA9DF80E305A
:103810000093034632462946014801F08DFCEAE751
:103820001872000830B40160012202710022427156
:1038300020218171C271027200240025C0E9044573
:1038400030BC704708B50A467E2903D80521FFF72A
:10385000FBFE08BD7F22F9E708B50521FFF780FED2
:1038600008BD1F2901D8817170472021FBE710B5E1
:1038700004460021FFF774FE40F00302D2B200219B
:103880002046FFF7E1FE702207212046FFF7DCFE0D
:10389000D4E9042313430DD12046FFF763FF2046EC
:1038A000FFF790FF01212046FFF716FE822000F06F
:1038B00005FF10BD052304F110020A212046FFF781
:1038C00087FEE9E710B504460021FFF705FE204614
:1038D000FFF778FF2046FFF745FF10BD10B50446FF
:1038E0000021FFF73DFE00F0FD0200212046FFF71A
:1038F000ABFE10BD10B504460021FFF731FE40F0CD
:103900000202D2B200212046FFF79EFE10BD70B524
:1039100004460D4616460021FFF722FE00F0FC0289
:1039200042F0020200212046FFF78EFE0120FDF743
:10393000C3FB324629462046FFF7C2FE012120463E
:10394000FFF7CAFD0120FDF7B7FB00212046FFF776
:10395000C3FD70BD0020704770B50E4615461C466D
:1039600070220721FFF770FEC0F340133370C0F3DD
:1039700000132B70C0F38010207070BD30B583B081
:103980000446FFF7C4FF00F085FE054601230DF154
:10399000070208212046FFF7A9FD10F0300F05D1DE
:1039A00000F078FE401BB0F5FA7FEFD3E31D0DF178
:1039B00005020DF106012046FFF7CEFF9DF80650E7
:1039C000E3791BB12046FFF7C5FF60722046FFF781
:1039D00085FF2046FFF7F6FE284603B030BD30B520
:1039E00083B0054602AC64E90223052322460A217E
:1039F000FFF7EEFD0523224610212846FFF7E8FDDC
:103A0000AA791F2A05D811212846FFF71DFE03B009
:103A100030BD2022F7E7000030B583B0CDE90023A8
:103A20000D4609B9C0E90423062D1DD80446012D11
:103A30001CD901236A461149495DFFF7C9FDA279E6
:103A40000F4B595D2046FFF7FFFD02212046FFF78F
:103A500087FD40B20B4B5B5D01229A400243D2B21C
:103A600002212046FFF7F0FD03B030BD05236A4672
:103A70000249495DFFF7ACFDE1E700BFE86F0008D0
:103A8000F86F0008F06F000808B521B90022012185
:103A9000FFF7DAFD08BD3F220121FFF7D5FDF9E769
:103AA00038B505460C460621FFF75AFD00F0F9022D
:103AB000032C09D0022C0ED0012C0FD034B1042CD1
:103AC00004D142F0060201E042F006020621284637
:103AD000FFF7BAFD38BD42F00402F7E742F00202F8
:103AE000F4E770B504460E460621FFF739FD0023C2
:103AF000237100F0D705022E0FD0012E10D02A46D8
:103B000006212046FFF7A0FD06212046FFF728FDED
:103B1000A8420AD00020207170BD45F02005EEE7D4
:103B20000123237145F00805E9E70120F4E738B5E2
:103B300005460C460021FFF713FD00F0F3021CB10F
:103B4000012C06D042F00C0200212846FFF77CFD34
:103B500038BD42F00802F7E710B504460021FFF730
:103B6000BBFC01212046FFF7ADFC0520FDF7A4FAC0
:103B70004F2204212046FFF767FD03212046FFF76F
:103B80008FFF02212046FFF7ACFF08B101236371CC
:103B900000212046FFF7A5FF02212046FFF7C7FFBF
:103BA00000221C212046FFF74FFD702207212046EE
:103BB000FFF74AFD4C212046FFF744FE2046FFF761
:103BC000D1FD2046FFF7FEFD10BD000000B585B019
:103BD00039483A4B03604FF4807383600123C3601C
:103BE000002343614FF46022C261436006230361F6
:103BF000FDF7D6FC00283CD100230193012202925C
:103C0000039301A92C48FDF731FB002836D101238D
:103C100001930223029301A92748FDF727FB0028FF
:103C200031D1022301930323029301A92248FDF716
:103C30001DFB68BB03230193042302930DEB0301D7
:103C40001D48FDF713FB40BB04230193052302939A
:103C500001A91948FDF70AFB20BB052301930623A0
:103C6000029301A91448FDF701FB00BB05B05DF804
:103C700004FB4521124800F02BFABDE74F21104804
:103C800000F026FAC3E758210D4800F021FAC8E7F2
:103C900061210B4800F01CFACCE76A21084800F0CB
:103CA00017FAD1E77321064800F012FAD5E77C2114
:103CB000034800F00DFAD9E72C020020002401404F
:103CC000687200080268204B9A4200D0704710B515
:103CD00086B0044603F56C439A6942F400729A6117
:103CE0009B6903F400730193019B3F230293032319
:103CF000039302A91548FDF759FF1548154B0360BA
:103D00000023436083608022C2604FF480720261AE
:103D10004FF48062426120228261C361FDF7E2FDBF
:103D200060B90B4B23625C62002211461220FDF742
:103D300049FD1220FDF77AFD06B010BDA621064808
:103D400000F0C6F9EDE700BF002401400008014083
:103D50005C020020080002406872000808B50648AE
:103D6000064B0360FDF799FD00B908BD38210448F2
:103D700000F0AEF9F9E700BFA002002000300240D9
:103D8000787200080268094B9A4200D0704782B0EE
:103D9000A3F500535A6942F040025A615B6903F08F
:103DA00040030193019B02B0704700BF0030024006
:103DB00000B583B0124B5A6942F001025A615B6947
:103DC00003F001030193019B002211460B20FDF734
:103DD000F9FC0B20FDF72AFD002211460E20FDF70D
:103DE000F1FC0E20FDF722FD002211460F20FDF709
:103DF000E9FC0F20FDF71AFD03B05DF804FB00BFDE
:103E0000001002402DE9F04389B0394B9A6942F025
:103E100010029A619A6902F010020092009A9A695F
:103E200042F020029A619A6902F020020192019AFE
:103E30009A6942F004029A619A6902F004020292BD
:103E4000029A9A6942F008029A619B6903F008039A
:103E50000393039BDFF8A49000224FF400514846DF
:103E6000FDF78EFFDFF8988000224FF48051404626
:103E7000FDF786FF1F4D00224FF480712846FDF7A5
:103E80007FFF4FF400530493012705970024069405
:103E90000226079604A94846FDF788FE4FF4805392
:103EA000049305970694079604A94046FDF77EFE05
:103EB0004FF48073049305970694079604A9284647
:103EC000FDF774FE4FF4007304930B4B05930694B7
:103ED00004A92846FDF76AFE4FF440630493059455
:103EE000069404A92846FDF761FE09B0BDE8F083F9
:103EF00000100240000801400000111000100140B5
:103F0000000C014008B5062202490348FDF78AFA71
:103F100008BD00BFBC0200202C02002000000000F1
:103F20002DE9F04385B05A4B5889C0F58050FCF715
:103F3000E7FDFCF771FA54A3D3E90023FCF7C4FAB8
:103F40000022544BFCF7C0FA0022534BFCF706F951
:103F5000FCF7CCFC0646514B1860002420E0504D85
:103F600035F81400FCF7CCFD3146FCF71DFE074682
:103F7000474B33F8149031464FF07E50FCF70AFD62
:103F800080464846FCF7BCFD4146FCF70DFE014665
:103F90003846FCF701FDFCF757FF25F81400013403
:103FA000042CDCDD3E4B5C88B4F5006407D424119E
:103FB00014F1800F05DB7F2C05DD7F2403E00F3437
:103FC000F5E76FF07F0464B2364B1C70344B1D88EC
:103FD000B5F5006507D42D1115F1800F05DB7F2D98
:103FE00005DD7F2503E00F35F5E76FF07F056DB246
:103FF0002C4B5D702A4BDB88B3F5006307D41B1193
:1040000013F1800F05DB7F2B05DD7F2303E00F33EA
:10401000F5E76FF07F034FFA83F8224B83F80280B5
:104020001F4B9B88B3F5006307D41B1113F1800F5E
:1040300005DB7F2B05DD7F2303E00F33F5E76FF012
:104040007F035FB2174BDF70114B1B891B09FF2BDE
:1040500015D85FFA83F9134B83F804903046FCF7C8
:10406000DBF9CDE90201CDF80490009743462A46DA
:1040700021460D4801F060F805B0BDE8F083FF234C
:10408000E7E700BFAFF30080CCCCCCCCCCCCDC3F9E
:10409000BC0200200000303F0000E03F080000208C
:1040A000B0020020A80200208872000808B5002293
:1040B00011461E20FDF786FB1E20FDF7B7FB0022F0
:1040C00011462420FDF77EFB2420FDF7AFFB08BD41
:1040D00008B50A460146024801F02EF8FEE700BF87
:1040E000D072000800B595B001220A924FF48033D7
:1040F0000B9300210C910E920222119212934FF415
:10410000E01313930AA8FDF757FE50BB0F23059346
:1041100002210691002307934FF4806208920993CD
:1041200005A8FEF76FF800BB022301934FF400438C
:10413000039301A8FEF748F9D8B9FEF71FF90F4B12
:10414000A3FB00308009FDF77DFB0420FDF790FB09
:10415000002211464FF0FF30FDF734FB15B05DF83B
:1041600004FBC6210648FFF7B3FFD4210448FFF73C
:10417000AFFFDB210248FFF7ABFF00BFD34D62105A
:10418000C072000810B5FCF773FFFFF7ABFFFFF735
:1041900039FEFFF70DFE00F0D9F800F029FAFFF71D
:1041A000DDFD00F095FAFFF711FDFFF77FFF4FF6F9
:1041B000FF73122213491448FFF714F9134801F052
:1041C0002FF81348FEF708FE1248FDF771FA052094
:1041D000FCF772FFFFF796FE00F036F80E4801F08C
:1041E0001FF8002422464FF400510C48FDF7C8FD8B
:1041F00084F00104FFF794FE00F078F80A20FCF741
:104200005BFFEFE7F4720008F40300200873000876
:104210002C0300202C02002018730008001001401D
:10422000012800D0704708B54FF6FF73994200D0BF
:1042300008BD02490248FFF7F5FAF9E7D402002069
:10424000000200200000000010B5254C2046FFF7BA
:1042500083FC66212046FFF7F5FA03212046FFF78D
:104260001FFC02212046FFF73CFC01212046FFF7FE
:104270005EFC00212046FFF707FC05212046FFF7E2
:10428000F0FA13A3D3E900232046FFF7A8FB12A3FB
:10429000D3E9002301212046FFF7BEFB2046FFF7AC
:1042A000DBFA01460F4800F047FF2046FFF722FBEC
:1042B0002046FFF7DCFA2046FFF704FB0A4800F02F
:1042C000AFFF4FF47A70FCF7F7FE10BDAFF300803C
:1042D00071CDABCDAB0000007C68524D54000000A6
:1042E00000020020287300083C73000800B583B06A
:1042F0000F4B1A788DF800205A788DF801209A78A3
:104300008DF80220DA788DF803201B798DF80430BF
:10431000052269460748FFF731FB28B10520FCF765
:10432000CBFE03B05DF804FB034800F079FFF5E72E
:10433000A8020020000200205073000808B54FF6C4
:10434000FF710120FFF76CFF08BD000008B50F48A2
:104350000F4B03604FF48273436000238360C3609C
:10436000036143614FF4007282610822C2610362FB
:10437000436283620A23C362FEF7B5FC00B908BD3D
:1043800045210448FFF7A4FEF9E700BFD40200204E
:1043900000380040587300080268144B9A4200D05D
:1043A000704710B586B003F5EC33DA6942F4804209
:1043B000DA61DB6903F480430193019B4FF42043EE
:1043C00002930223039303230593094C02A9204679
:1043D000FDF7ECFB4FF48043029300230393049317
:1043E00002A92046FDF7E2FB06B010BD00380040F0
:1043F000000C014000B583B0244B9A6942F00102E1
:104400009A619A6902F001020092009ADA6942F018
:104410008052DA61DB6903F080530193019B032032
:10442000FDF7BEF9002211466FF00B00FDF7CAF947
:10443000002211466FF00A00FDF7C4F90022114670
:104440006FF00900FDF7BEF9002211466FF004007D
:10445000FDF7B8F9002211466FF00300FDF7B2F93D
:10446000002211466FF00100FDF7ACF90022114661
:104470004FF0FF30FDF7A6F9054A536823F0E063DB
:1044800043F00073536003B05DF804FB001002407A
:10449000000001407047FEE7FEE7FEE7FEE77047D9
:1044A0007047704708B5FCF7F5FDFDF7F2F908BD58
:1044B00008B50248FDF7D8FA08BD00BF5C0200202D
:1044C00008B50248FDF7D0FA08BD00BF6C03002014
:1044D00008B50248FDF7C8FA08BD00BFB0030020C8
:1044E00008B50248FCF72DFE08BD00BF2C020020D5
:1044F00008B5044A1368013313600348FEF701FD51
:1045000008BD00BF1C0200202C03002008B5024893
:10451000FEF766FB08BD00BFD402002070B50D4653
:104520001646002404E0AFF3008028700134013502
:10453000B442F8DB304670BD10B514464FF6FF7339
:1045400092B20248FEF74EFF204610BDF403002051
:1045500008B503460B4A126842B10A4A1068034480
:104560006A46934206D8074A136008BD054A0649C1
:104570001160F2E700F05EF90C2303604FF0FF30AA
:10458000F3E700BF18020020380400204FF0FF308E
:1045900070474FF400534B60002070470120704774
:1045A000002070470F4B1A6842F001021A605968E8
:1045B0000D4A0A405A601A6822F0847222F480324E
:1045C0001A601A6822F480221A605A6822F4FE02E5
:1045D0005A604FF41F029A60044B4FF000629A60D9
:1045E000704700BF001002400000FFF800ED00E03F
:1045F00000B587B019481A4B036048234360002375
:1046000083604FF47A72C26003618361FEF770FDCC
:10461000A0B906A94FF4805341F8103D0F48FEF7AA
:10462000E7FB80B9402300938023019369460B4840
:10463000FEF777FD60B907B05DF804FB3F2109483C
:10464000FFF746FDE5E745210648FFF741FDE9E7AD
:104650004C210448FFF73CFDEDE700BF2C03002090
:1046600000080040807300080268094B9A4200D09D
:10467000704782B003F50233DA6942F00402DA616E
:10468000DB6903F004030193019B02B0704700BF94
:1046900000080040014B1868704700BF1C02002052
:1046A000044B1A68044B1B685B6A4FF47A7000FB7A
:1046B000023070471C0200202C03002010B5044675
:1046C000FFF7EEFF0444FFF7EBFFA042FBD310BD62
:1046D00008B50B480B4B03604FF4E13343600023F4
:1046E0008360C36003610C2242618361C361FEF792
:1046F0004AFE00B908BD45210348FFF7E9FCF9E788
:10470000F4030020003801409073000802682E4B2B
:104710009A4200D07047F0B587B0044603F558437D
:104720009A6942F480429A619B6903F48043019341
:10473000019B402302930223039303230593234FFA
:1047400002A93846FDF732FA802602960025039525
:10475000049502A93846FDF729FA1D4A536843F02B
:10476000E06343F0040353601A481B4B0360456049
:104770008560C660056145618561C561FDF7B2F878
:10478000B8B9144B63635C621448154B0360102383
:104790004360002383608022C260036143618361C0
:1047A000C361FDF79FF848B90C4B23635C6207B007
:1047B000F0BD72210B48FFF78BFCE2E7822109482C
:1047C000FFF786FCF0E700BF00380140000C014015
:1047D00000000140B0030020580002406C0300209C
:1047E0004400024090730008002103E00B4B5B582B
:1047F000435004310A480B4B42189A42F6D30A4AF6
:1048000002E0002342F8043B084B9A42F9D3FFF739
:10481000C9FE00F015F8FFF7B5FC70476C7600088C
:1048200000000020E0010020E0010020380400200A
:10483000FEE70000014B1868704700BF1000002021
:1048400070B500250C4E0D4CA41BA410A54209D137
:1048500002F0AAFB00250A4E0A4CA41BA410A54294
:1048600005D170BD56F8253098470135EEE756F86A
:10487000253098470135F2E7607600086076000839
:10488000607600086876000803460244934200D12F
:10489000704703F8011BF9E7002B2DE9F0471E468E
:1048A000BBBF03F100431E4600232D2388B0149F95
:1048B000DDE9121A27F02007462F1446109D0B70D1
:1048C00004D0452F00D10135022300E0032307AABD
:1048D000049206AACDE902A2CDE90035224633466C
:1048E00000F0F6FD472F804602D1119BDB0726D54D
:1048F000462F08EB050911D198F80030302B0AD16A
:104900000022002320463146FCF71CFB18B9C5F1F4
:104910000105CAF80050DAF800309944002200235B
:1049200020463146FCF70EFB38B93022079B4B4539
:1049300005D2591C07911A70F8E7CDF81C90404633
:10494000079B159AA3EB0803136008B0BDE8F08736
:10495000F7B50029B4BF2D232B230446B8BF494225
:10496000092904F8022B437021DD0DF107031F46CE
:104970000A2691FBF6F506FB1511092D01F1300110
:1049800003F8011C03F1FF32294609DC3031023BF8
:1049900002F8011CBB42224604D3101A03B0F0BD3A
:1049A0001346E6E713F8012B04F8012BF2E7302356
:1049B00019448370021DC170EFE700002DE9F04F2C
:1049C00091B00C461A9F93461E46054601F0AEFC78
:1049D000036818460993FCF757FA00230E933B68C7
:1049E0000A90073323F0070303F1080294F81880B4
:1049F000D4F800A03A60D3E90023C4E91223D4E933
:104A0000127929F000430B934FF0FF32A64B384642
:104A10000B99FCF7C9FA68BB4FF0FF32A24B38463E
:104A20000B99FCF7A3FA28BB00220023384649461D
:104A3000FCF792FA10B12D2384F843309B4F9C4B26
:104A4000B8F1470F98BF1F4603234FF000092361B9
:104A50002AF00403236000965B460FAA21462846ED
:104A600000F0E2F9013040F090804FF0FF3011B0DB
:104A7000BDE8F08F3A464B4638464946FCF794FA73
:104A800010B18C4F8C4BDBE763684AF48062591C91
:104A90000DA80EA940D1062363604FF0000C0DF164
:104AA0003303CDE9012363682260CDE90308009355
:104AB0003A464B46CDE9051C2846FFF7EDFE08F0C7
:104AC000DF03472B074609D10D9BD81C02DB626828
:104AD000934247DDA8F102085FFA88F8B8F1650F44
:104AE0000D9924D80139424604F150000D91FFF789
:104AF0002FFF0E9A81461318012A236102DC2268D7
:104B0000D10701D5013323619DF83330002BA2D0AA
:104B10002D2384F843309EE7B8F1670F00F06E81D3
:104B2000B8F1470FB9D1002BB7D10123B4E7B8F1E1
:104B3000660F19D1002963680CDD216113B9226861
:104B4000D20702D501330B4423610D9B4FF00009BE
:104B5000A365D9E713B92268D00701D50233F3E77B
:104B60000123F1E74FF06708DDE90D32934205DBE1
:104B700022682361D107E8D50133E5E7002BCCBFDC
:104B80000123C3F102031344DEE723685A0507D467
:104B900023693A4659462846B047013029D164E78F
:104BA000B8F1650F40F2D780D4E91201002200234A
:104BB000FCF7C8F988B30123404A59462846B04754
:104BC00001303FF452AFDDE90D239A4202DB236846
:104BD000D8070ED5DDE9092359462846B0470130EC
:104BE0003FF443AF002704F11A080E9B013BBB4280
:104BF00009DC23689F0700F1FD80E0680F9B984265
:104C0000B8BF184633E70123424659462846B04705
:104C100001303FF42AAF0137E7E70D9B002B2BDC77
:104C20000123264A59462846B04701303FF41DAFBC
:104C30000D9B23B90E9B13B92368D907D9D5DDE99C
:104C4000092359462846B04701303FF40EAF4FF0D4
:104C5000000804F11A090D9B5B42434501DC0E9BE1
:104C600097E701234A4659462846B04701303FF4AA
:104C7000FCAE08F10108EEE70E9AA36D9A42A8BFB8
:104C80001A46002A904607DD134659463A462846FA
:104C9000B04701303FF4E9AE04F11A034FF0000AC7
:104CA00028EAE8780B9315E0FFFFEF7FA873000870
:104CB000A4730008B0730008AC730008B473000854
:104CC00001230B9A59462846B04701303FF4CDAE38
:104CD0000AF1010AD4F85890A9EB08035345EFDC18
:104CE000DDE90D239A424F4414DB2368DA0711D41F
:104CF0000E9B0D99A3EB0902A3EB01099145A8BFF7
:104D00009146B9F1000F0DDC002729EAE97904F199
:104D10001A0818E0DDE9092359462846B047013052
:104D2000E6D1A2E64B463A4659462846B0470130FE
:104D3000EAD19AE60123424659462846B047013057
:104D40003FF493AE0137DDE90D239B1AA3EB090372
:104D5000BB42EFDC4DE70E9A012A01DCDB0738D5B8
:104D600001233A4659462846B04701303FF47DAE0C
:104D7000DDE9092359462846B047013007F101070C
:104D80003FF473AED4E912010E9B002203F1FF3809
:104D90000023FCF7D7F8C0B943463A46594628469F
:104DA000B04701300DD160E60123424659462846FE
:104DB000B04701303FF459AE01370E9B013BBB4277
:104DC000F2DC4B4604F15002E4E6002704F11A0835
:104DD000F3E70123E1E70123424659462846B0475D
:104DE00001303FF442AE0137E3680F9A9B1ABB4291
:104DF000F1DC02E7002704F11908F5E7002B3FF486
:104E000094AE4FF0000CCDE9051C0DF1330122608A
:104E1000CDE90308CDE9012100933A464B462846E7
:104E2000FFF73AFD07464FE62DE9F04791461F464A
:104E30008A680B6906469342B8BF1346C9F800302A
:104E400091F843200C46DDF8208012B10133C9F8F7
:104E500000302368990642BFD9F800300233C9F800
:104E60000030256815F0060507D104F1190AE3683A
:104E7000D9F800209B1AAB4229DC94F84330226811
:104E8000003318BF012392062ED404F143023946A1
:104E90003046C047013021D02368E56803F006039F
:104EA000042B18BF0025D9F800204FF0000908BFD7
:104EB000AD1AA368226908BF25EAE5759342C4BF0D
:104EC0009B1AED181A344D451AD1002008E0012331
:104ED000524639463046C047013003D14FF0FF30CB
:104EE000BDE8F0870135C2E73020E11881F84300C2
:104EF0005A1C94F845102244023382F84310C4E748
:104F00000123224639463046C0470130E6D009F138
:104F10000109D8E72DE9F04301F1430C0C46097E65
:104F200085B06E291746064698460C9A00F0B38065
:104F300022D8632936D00AD8002900F0B980582930
:104F400000F0838004F1420584F8421032E06429C5
:104F500001D06929F6D120681368050603F1040120
:104F60002AD51B681160002B03DA2D225B4284F8DE
:104F700043206F480A2239E0732900F09D8008D849
:104F80006F2920D07029DDD1236843F020032360EE
:104F900003E0752917D07829D4D17823654884F89F
:104FA000453055E0136804F14205191D1B68116076
:104FB00084F8423001238CE01B6810F0400F116030
:104FC00018BF1BB2CFE713682568181D10602806AC
:104FD00001D51B6802E06806FBD51B886F2914BF4A
:104FE0000A2208225248002184F843106568002DE7
:104FF000A560C0F29580216821F004012160002B9A
:105000003DD1002D40F08E806546082A0BD12368E3
:10501000DB0708D5236962689A42DEBF302305F8B2
:10502000013C05F1FF35ACEB05032361CDF80080B1
:105030003B4603AA21463046FFF7F6FE01304DD12C
:105040004FF0FF3005B0BDE8F083394884F84510D3
:10505000136821681D1D1B6815600A060BD5CA0759
:1050600044BF41F0200121601BB9226822F02002D8
:1050700022601022B7E74D0648BF9BB2EFE76546B6
:10508000B3FBF2F102FB1133C35C05F8013D0B46A3
:105090000029F5D1B9E713682568181D616910600A
:1050A00028061B6801D5196002E06A06FBD5198045
:1050B000002365462361B9E71368191D11601D6857
:1050C00062680021284601F0ABF908B1401B60601E
:1050D00063682361002384F84330A7E723692A46E5
:1050E00039463046C0470130AAD023689B0713D405
:1050F000E068039B9842B8BF1846A3E701234A46DD
:1051000039463046C04701309AD00135E368039AEA
:105110009B1AAB42F2DCEBE7002504F11909F5E735
:10512000002BACD1037804F1420584F842306CE7DF
:10513000B6730008C77300080FB40A4B13B51C6898
:1051400024B1A36913B9204601F066F805AB049AAF
:10515000A1682046019301F035FD02B0BDE8104082
:1051600004B070471000002070B50E46054618B117
:1051700083690BB901F050F8AB69AC6813B92846E4
:1051800001F04AF8234B9C4217D16C68A3891B0796
:105190001DD52369DBB1013EA36816F8011F013B51
:1051A000A360E9B9002B2EDA22460A21284600F036
:1051B0003FF8013011D00A2011E0174B9C4201D179
:1051C000AC68E3E7154B9C4208BFEC68DEE721467C
:1051D000284600F07FF80028DDD04FF0FF3070BD8A
:1051E000002B04DAA2699A4206DC0A2904D023685B
:1051F0005A1C22601970CFE72246284600F018F8A2
:105200000130C9D1E9E70A2023685A1C22601870CE
:10521000E5E700BF0874000828740008E873000878
:10522000024B01461868FFF79FBF00BF1000002027
:10523000F8B50E461446054618B183690BB900F05F
:10524000EBFF214B9C422AD16C68A369A360A38920
:105250001A072ED5236963B323692068F6B2C01AF2
:1052600063693746834204DC2146284600F06AFF22
:1052700028BBA3680130013BA36023685A1C22604D
:105280001E706369834204D0A389DB0719D50A2EF7
:1052900017D12146284600F055FF90B10FE00B4B87
:1052A0009C4201D1AC68D0E7094B9C4208BFEC6836
:1052B000CBE72146284600F00DF80028CCD04FF06F
:1052C000FF373846F8BD00BF08740008287400088E
:1052D000E8730008324B70B51D6806460C4625B1D0
:1052E000AB6913B9284600F097FF2E4B9C420FD1B3
:1052F0006C68B4F90C309AB215072CD4D00611D4CE
:105300000922326043F04003A3814FF0FF303EE0BA
:10531000254B9C4201D1AC68EBE7244B9C4208BF73
:10532000EC68E6E7510712D5616B41B104F1440323
:10533000994202D0304601F077FB00236363A389D2
:1053400023F02403A3810023636023692360A389DE
:1053500043F00803A38123694BB9A38903F42073A5
:10536000B3F5007F03D02146304601F011F8A28941
:1053700012F001030CD00023A36063695B42A361B8
:10538000236953B9B4F90C3013F08000BAD170BD61
:10539000920758BF6369A360F2E70020F7E700BFF8
:1053A000100000200874000828740008E873000842
:1053B0002DE9F74F03690C698046A342C0F284804F
:1053C000013C01F1140700F1140657F8245056F877
:1053D00024000135B0FBF5F54FEA840C06EB0C0315
:1053E00007EB0C0901939DB34FF0000A3846B6460F
:1053F000D34650F8042B93B205FB03A3120C4FEADB
:10540000134A05FB02A29BB2ABEB0303DEF800B02C
:105410004FEA124A1FFA8BFB5B441FFA82FBDEF84D
:1054200000208145CBEB124202EB23429BB243EAC0
:1054300002434FEA224B4EF8043BDAD256F80C30C6
:1054400033B9019B043B9E421A4631D3C8F8104041
:10545000404601F013FA002826DB30464FF0000CDE
:10546000013557F8041BD0F800E08BB2ACEB030316
:105470001FFA8EF213440A0CC2EB1E4202EB2342C7
:105480009BB243EA0243B9454FEA224C40F8043B41
:10549000E7D256F8242006EB84032AB9043B9E4247
:1054A0001A460BD3C8F81040284603B0BDE8F08F69
:1054B0001268043B002AC9D1013CC4E71268043BCE
:1054C000002AEFD1013CEAE70020EEE700000000EF
:1054D0002DE9F04F16461F46456A95B00446DDF8A3
:1054E0008480CDE902673DB9102000F091FF606231
:1054F000C0E901550560C560636A196851B15A6811
:10550000012393404A608B60204600F0D6FF0022C2
:10551000636A1A603B1EAFBF0023012223F00043E1
:105520000393ACBFC8F80030C8F80020AE4BDDF8DC
:105530000C8033EA08031BD142F20F73209A1360E8
:10554000029B23B9C8F31300002800F04585229B75
:1055500053B9A64B21E0A64B06930833229A136059
:10556000069815B0BDE8F08FA04B06930333F5E71E
:10557000DDE902670022002330463946FBF7E2FCF2
:10558000824660B10123209A1360229B002B00F019
:105590002085984B229A1360013B0693E0E712ABFB
:1055A000019313AB009332463B46204601F0DEF9EF
:1055B000C8F30A558346002D7DD0B046C7F31303C8
:1055C00043F07F5949F44019A5F2FF35CDF840A0CA
:1055D0000022894B40464946FAF7BEFD7CA3D3E939
:1055E0000023FAF771FF7CA3D3E90023FAF7B6FD95
:1055F000064628460F46FAF7FDFE79A3D3E90023B5
:10560000FAF762FF02460B4630463946FAF7A6FD26
:1056100006460F46FBF7DEFC00228246002330469A
:105620003946FBF799FC48B15046FAF7E3FE32469B
:105630003B46FBF787FC08B90AF1FF3ABAF1160FAF
:105640005AD8DDE902236D4901EBCA01D1E9000115
:10565000FBF7A0FC002851D000230AF1FF3A0D937C
:10566000129B5D1B6B1E079343BF0023C5F101090D
:1056700007934FF00009BAF1000F41DB079BCDF80B
:1056800030A053440793002308931E9B092B00F27C
:105690008F80052BC4BF043B1E931E9BC8BF0025F3
:1056A000A3F10203D8BF0125032B00F28D80DFE8B0
:1056B00003F07B7D2F6FDDE912531D4405F232406C
:1056C000202813DDC0F14000029B08FA00F805F223
:1056D000124023FA00F048EA0000FAF77BFE0123AB
:1056E0008046A1F1F879013D109371E7029BC0F16A
:1056F000200003FA00F0F0E70123B0E70D90AFE7D8
:10570000CAF1000308930023A9EB0A090C93BCE734
:10571000012309931F9B002B74DD984604930022FC
:10572000666A7260042202F11400984271686ED9B0
:10573000204600F08EFE636A30601B68B8F10E0FE1
:10574000069300F2ED80002D00F0EA80DDE90223EF
:10575000BAF1000FCDE90E2377DD284A0AF00F03D6
:105760004FEA2A1602EBC303F006D3E90023CDE982
:105770000A2368D5DDE90E01214B0325D3E908236F
:10578000FAF7CCFFCDE9020106F00F061C4F4FE0FF
:10579000012309931F9B534403F1010804934346DB
:1057A000012BB8BF0123BAE70023B2E70023F0E7DB
:1057B0000125002309951E934FF0FF330022049327
:1057C000984612231F92AAE701230993F4E700BF2A
:1057D00061436F63A787D23FB3C8608B288AC63FF7
:1057E000FB799F501344D33F0000F07FE173000822
:1057F000D8730008B57300080000F83F7074000803
:10580000487400080123049398461A46DAE70131E8
:105810007160520087E7F10708D5DDE90A01D7E991
:105820000023FAF751FECDE90A0101357610083759
:10583000002EF0D1DDE90A23DDE90201FAF76EFF5F
:10584000CDE902011BE00225A0E700F0A480DDE91C
:105850000E01CAF10006A04B06F00F0203EBC203D3
:10586000D3E90023FAF730FE02250023CDE9020137
:105870009A4F3611002E40F08380002BE0D10D9B13
:10588000002B00F08A80DDE90223CDE90A23DDE95F
:105890000A010022924BFBF75FFB00287DD0B8F194
:1058A000000F7AD0049B002B36DDDDE90A010022CF
:1058B0008C4BFAF709FECDE90201049E0AF1FF378D
:1058C00001352846FAF796FDDDE90223FAF7FCFDDB
:1058D0000022854BFAF742FCA1F15075CDE90A018F
:1058E0000B95002E5CD1DDE9020100227F4BFAF717
:1058F00033FC0A9A2B46CDE90201FBF74BFB00284B
:1059000040F08182DDE902010A9A05F10043FBF7CC
:1059100023FB002840F07582DDE90E23CDE9022348
:10592000139B002BC0F24B81BAF10E0F00F347819D
:10593000694B03EBCA03D3E90023CDE904231F9B82
:10594000002B80F2D780B8F1000F00F3D38040F035
:105950005782DDE904010022644BFAF7B5FDDDE969
:105960000223FBF70DFB46464746002840F02D82F8
:10597000069B069A5D1C31230AF1010A137028E286
:10598000F20705D5D7E90023FAF79EFD012301357B
:10599000761008376EE7022571E75746464690E7CE
:1059A0004D4B03EBC60353E90201099B002B48D082
:1059B00002460B4600204E49FAF7B0FEDDE90A2305
:1059C000FAF7CAFBCDE90A01069DDDE90201FBF702
:1059D00001FB1190FAF70EFD02460B46DDE90201CC
:1059E000FAF7BAFB119BCDE90201303305F8013B10
:1059F000DDE90A23FBF7B0FA002863D1DDE90223D1
:105A000000203749FAF7A8FBDDE90A23FBF7A4FADF
:105A1000002840F0B580069BEB1A9E427FF77CAFD2
:105A2000DDE90A0100222F4BFAF74EFD0022CDE9F5
:105A30000A01DDE902012B4BFAF746FDCDE902012F
:105A4000C3E7DDE90A23FAF73FFD069BCDE90A012A
:105A50009D191E46DDE90201FBF7BCFA1190FAF729
:105A6000C9FC02460B46DDE90201FAF775FB119B02
:105A7000CDE90201303306F8013BAE424FF000029F
:105A800024D1DDE90A011A4BFAF768FB02460B46FE
:105A9000DDE90201FBF77EFA002871D1DDE90A2376
:105AA00000201349FAF758FB02460B46DDE90201D4
:105AB000FBF752FA00283FF42FAF15F8013C6A1E9D
:105AC000302B01D0BA464AE01546F6E7054BFAF707
:105AD000FBFCCDE90201BDE77074000848740008C2
